:020000040000FA
:0600000002010A022017B4
:0300130002246D57
:03002B0002245458
:0300530002208AFE
:03007B0002242E2E
:10008300021ECBE5C754F84401F5C77901220000ED
:100093000080FB120086B900030200F4E4792178A2
:1000A30008B800028004F709D8FCE479297802B87B
:1000B30000028004F709D8FCE490028178A879074C
:1000C3008002F0A3D8FCD9FA900928AA82AB8390C6
:1000D300013A788379088015E493A3AC82AD838ACF
:1000E300828B83F0A3AA82AB838C828D83D8E9D9D8
:1000F300E775829D7583E5740212011C7582917503
:100103008300740012011C75D00075813F7518813E
:10011300751902759F00020096C09FF59FE473D086
:100123009F22D083D082C09FE493C0E0740193C028
:10013300E0740293F59F22FF0000B400002800281A
:1001430000283075A000A000A000A000000800084F
:10015300E001F0001000100010001000100010006B
:1001630050005000500010001000D00700000000A5
:1001730000000F00010005003075070010000100AA
:1001830081FF0000FFFF02020208025000A00000EE
:1001930000E803023B810100002481022781010062
:1001A300007709022B81010000AE020227810100C2
:1001B300007809022D81010000C402022781010099
:1001C300007909023981010000C60202278101007A
:1001D300007A09023181080000C702022781010069
:1001E300007B090233810100007C09FFB20FB20FCB
:1001F300B20FB20FB20FB20FB20FB20FB20FB20FF4
:10020300B20FB20FB20FFFFF01053F10FFF9F6F671
:100213001907F3FBFDFDFDFDFDFBE1FF0000000001
:10022300000000000000000000000000FFFFFFFFCF
:10023300F8E0CFDFBFBFBFBFBFDFEFFF00000000AD
:100243000000000000000000000000004040405F8C
:10025300555555755555555F404040000000000009
:100263000000000000000000000000000040200F1C
:10027300094989790909090F20400000000000009D
:1002830000000000000000000000000000FE024229
:100293004ACA4A4ACA4A4A4202FE00000000000013
:1002A30000000000000000000000000000FF4050BC
:1002B3004C4340404F50505C40FF000000000000A2
:1002C3000000000000000000000000000000F888AB
:1002D300888888FF88888888F8000000000000006C
:1002E30000000000000000000000000000001F08E4
:1002F3000808087F888888889F80F0000000000035
:1003030000000000000000000000000080828282E4
:10031300828282E2A2928A868280800000000000AC
:1003230000000000000000000000000000000000CA
:100333000040807F0000000000000000000000007B
:100343000000000000000000000000002424A4FEC0
:10035300A3220022CC0000FF0000000000000000E8
:10036300000000000000000000000000080601FF7C
:1003730000010404040404FF020202000000000060
:10038300000000000000000000000000101010FF3B
:10039300109008888888FF8888880800000000007B
:1003A3000000000000000000000000000444827F01
:1003B30001808040432C102846818000000000000B
:1003C3000000000000000000000000004048484812
:1003D300FF484842A29E82A2C2BE00000000000065
:1003E30000000000000000000000000080601F20EB
:1003F3007F4444404F484848484F400000000000B5
:10040300000000000000000000000000000404746D
:10041300545455565454547404040000000000000E
:100423000000000000000000000000008483412160
:100433001D05050505057D818185E300000000009C
:1004430000000000000000000000000040442414ED
:100453007F94240024147F142444400000000000EF
:1004630000000000000000000000000000808884FD
:100473004245291111090503000000000000000096
:100483000000000000000000000000000000FE0269
:1004930002F2121212F20202FE000000000000003B
:1004A30000000000000000000000000000007F20AA
:1004B30020272424242720207F00000000000000A0
:1004C3000000000000000000000000000000FC44E9
:1004D30054545455FE545454F44444000000000052
:1004E30000000000000000000000000040300F008A
:1004F300FD45454547454545FD000000000000001A
:1005030000000000000000000000000004F4545448
:100513005F5454F40400FE222222FE000000000077
:10052300000000000000000000000000080B0909A3
:10053300FF09098B48300F0242827F000000000050
:10054300000000000000000000000000101010FF79
:100553001010F00000F8080808F800000000000080
:100563000000000000000000000000008040300F89
:1005730040807F00007F2020207F000000000000DB
:10058300000000000000000000000000080888FFD1
:100593004848000848FF0808F80000000000000071
:1005A3000000000000000000000000008165080753
:1005B30020C0080423C0030023C40F000000000070
:1005C3000000000000000000000000000000F01028
:1005D300101010FF10101010F000000000000000B9
:1005E30000000000000000000000000000000F04F5
:1005F300040404FF040404040F00000000000000CE
:10060300000000000000000000000000404042CC59
:100613000040A09E8282829EA02020000000000055
:100623000000000000000000000000000000003F88
:10063300908840432C102846418080000000000031
:10064300000000000000000000000000001715D5A6
:100653005557557D555755D5151700000000000017
:100663000000000000000000000000004040407F48
:10067300555555555555557F4040400000000000E5
:100683000000000000000000000000000002020261
:10069300028242F20E4282020202000000000000C7
:1006A3000000000000000000000000001008040229
:1006B300010000FF00000001020C00000000000028
:1006C300000000000000000000000000101010FFF8
:1006D3001010F00000F8080808F8000000000000FF
:1006E3000000000000000000000000008040300F08
:1006F30040807F00007F2020207F0000000000005A
:10070300000000000000000000000000080888FF4F
:100713004848000848FF0808F800000000000000EF
:1007230000000000000000000000000081650807D1
:1007330020C0080423C0030023C40F0000000000EE
:10074300000000000000000000000000000038343A
:100753000282C27C3800000000000000000000009C
:100763000000000000000000000000000000000086
:100773000037370000000000000000000000000008
:10078300000000000000000000000000404042CCD8
:100793000000FC24A4242222A36200000000000025
:1007A3000000000000000000000000000040201FC7
:1007B300205847504845424548504000000000003B
:1007C3000000000000000000000000000000FE0226
:1007D3000202020202020202020202000000000000
:1007E30000000000000000000000000080601F0007
:1007F30000000000000000000000000000000000F6
:100803000000000000000000000000002030AC6386
:10081300205820F84F4849FA4848080000000000D3
:100823000000000000000000000000002267221208
:10083300121200FF2222223F222220000000000089
:100843000000000000000000000000004020F80746
:10085300F0A0904C5724A4544C808000000000006A
:100863000000000000000000000000000000FF0086
:100873001F80925249292412080000000000000042
:10088300000000000000000000000000FF00013035
:1008930075030201060000000000000000000000D4
:1008A3000000000000000000000000000000000045
:1008B30000FFFF0600800CE8031201255DD602123B
:1008C300012574D602120125A3D602120125DCD616
:1008D3000212012504D70212012532D70212012583
:1008E30049D70212012560D70212012576D70212D9
:1008F30001259DD702120125B0D702120125C6D7C3
:1009030002120125EED702120125008002120125F1
:10091300FF80021201253481021201255581021242
:100923000125658102120125868102120125928229
:10093300021201255F8302120125D28302120125CF
:100943005884021201259B8402120125D2840212CB
:1009530001255885021201252A860212012588865F
:1009630002120125A086021201251A87021201250F
:100973001D8702120125208702120125C787021253
:100983000125DF87021201250F88021201252F8816
:10099300021201251D8902120125D38902120125A4
:1009A300FBB00212012534B1021201257DB10212FE
:1009B3000125C8B10212012506B20212012543B274
:1009C3000212012571B20212012518B30212012588
:1009D30022B3021201252FB30212012562B30212C0
:1009E300012524B40212012530B40212012548B4B2
:1009F3000212012552B402120125B1E102120125AE
:100A0300BFE102120125D7E102120125EFE1021233
:100A13000125C2AE0112012560AF01120125D8AF35
:100A230001120125EDB00112012527B101120125A3
:100A3300D0B101120125A5B20112012509B4011299
:100A4300012560B401120125E7B401120125CEB5D9
:100A5300011201251BB601120125A9B601120125B8
:100A6300CDB601120125A2B801120125E3B8011286
:100A7300012505B901120125D6B90112012504C4C6
:100A830002120125D6C40212012586C502120125D0
:100A93009BC602120125C1C602120125C9E3021237
:100AA3000125D3B802120125E5B8021201250BB9BD
:100AB3000212012533BA021201253DBA02120125A1
:100AC30096BB0212012500D8021201253CD902125D
:100AD3000125F7A0011201255AA1011201256AA1DE
:100AE300011201258DA101120125D8A101120125B1
:100AF3007DA20112012573A3011201253DA4011258
:100B03000125B5A501120125F7A50112012595A619
:100B130001120125BBA601120125A9A80112012575
:100B2300AEA8011201258FAA01120125E3AA011221
:100B3300012545AB011201256DAB0112012511AC55
:100B430001120125D3AC0112012504AD01120125C7
:100B530007AD011201254FAD0112012591AD01121F
:100B63000125F8AD01120125CFCF02120125E2CFF5
:100B730002120125FBCF0212012546D002120125E4
:100B830021D102120125B0D102120125FBD102129B
:100B93000125BF5200120125F852001201254453CA
:100BA30000120125CF53001201250854001201251C
:100BB3001C5600120125F85700120125E3590012B3
:100BC30001251A5B001201257A5D00120125665E7C
:100BD30000120125AC5F00120125B9600012012546
:100BE300D660001201250E6100120125306100124A
:100BF3000125CA65001201256B6600120125BC663A
:100C030000120125E3660012012531670012012558
:100C130091670012012596BC02120125A0BC0212A5
:100C230001256BBD0212012586BD02120125CABD35
:100C33000212012502BE021201252BBE021201255A
:100C4300A4BE02120125B9BE02120125DDBE0212A5
:100C53000125F1BE0212012522BF0212012593BF15
:100C630002120125DCBF0212012506C00212012572
:100C73002BC002120125E7B402120125B1B50212FD
:100C8300012594B6021201250AB7021201254CB7B9
:100C93000212012579B8021201251BC9011201258F
:100CA30044C9011201255DC901120125A2CA01121D
:100CB300012580CB011201259FCB011201252CCCEC
:100CC300011201256FCC01120125BCCD01120125B2
:100CD3005BCE01120125DAD00112012571D1011277
:100CE300012545D20112012527D30112012593D4F1
:100CF3000112012526D501120125A9DC02120125C5
:100D030012DD0212012566DD021201258DDD0212BC
:100D130001255AA802120125C7A80212012512A90A
:100D23000212012507AA0212012503AB02120125B3
:100D3300EDAB021201253E8A02120125808A0212BE
:100D430001255A8B02120125338C021201252E8DA7
:100D5300021201250D8E02120125798E0212012540
:100D6300408F02120125AB8F02120125129002124D
:100D730001253D9002120125AE90021201254191F9
:100D830002120125AA9102120125BF910212012527
:100D93000792021201252092021201258592021266
:100DA30001258892021201254ACA0212012572CA3C
:100DB30002120125B0CA021201256ECB02120125CF
:100DC300D9CB02120125F5CB021201251DCC02124B
:100DD30001254DCC021201255CCC02120125D6CC93
:100DE30002120125FCCC021201250EE2011201259B
:100DF300EBE301120125E6E501120125B9E6011233
:100E0300012504E70112012516E70112012556E722
:100E1300011201258BE701120125D7E701120125F4
:100E230006E80112012529E80112012576E80112DD
:100E33000125FFE8011201250CEB01120125F7EC56
:100E4300011201253FED0112012580ED011201255B
:100E5300CCED011201259DD501120125C8D5011242
:100E63000125AFDC01120125D3DE011201258EE03D
:100E730001120125EBE10112012590240012012545
:100E83002725001201256D2500120125AC2600122D
:100E93000125432800120125BD2800120125D82869
:100EA300001201254D29001201257C2A001201257B
:100EB300D72B00120125D92C00120125362E001242
:100EC30001254F2E00120125AC2E001201258E2F75
:100ED30000120125C12F0012012531300012012516
:100EE300AB3000120125FA3000120125C631001281
:100EF3000125CB3200120125AA3300120125353416
:100F030000120125A3340012012517350012012513
:100F1300403500120125FF350012012579370012F3
:100F23000125963700120125B537001201254638F1
:100F3300001201256B380012012593380012012598
:100F43000E3900120125683900120125BC3A00123E
:100F53000125793B001201254C3C00120125289301
:100F630001120125789301120125849301120125B1
:100F7300619401120125919401120125C994011272
:100F83000125489501120125809501120125D2956D
:100F9300011201250F960112012534980112012532
:100FA300609A011201255B9C01120125369E0112F4
:100FB3000125F77F001201251968001201256368D6
:100FC30000120125426E00120125C36F0012012594
:100FD3002276001201251D77001201255A7700128F
:100FE30001257B7700120125BD7700120125A97821
:100FF300001201259D79001201257A3C001201257A
:10100300F24600120125F84600120125044E001293
:10101300012534C70212012532C80212012588C8EE
:1010230002120125C6C80212012523C90212012595
:10103300A0C902120125A9C902120125B5C90212CC
:101043000125C8C90212012504CA021201251ACAC0
:1010530002120125AFAC02120125BCAC021201251C
:10106300D6AC0212012515AD0212012553AD0212B1
:101073000125B8AD02120125CDAD02120125D8AD6F
:1010830002120125E5AD02120125FCAD0212012574
:101093000AAE0212012515AE0212012521AE02127B
:1010A300012530AE021201253BAE021201255EAED0
:1010B3000212012507AF0212012517AF0212012503
:1010C30031AF021201254EAF021201256AAF02129F
:1010D30001258FAF0212012599AF02120125ADAF91
:1010E30002120125CCAF021201252DB002120125F7
:1010F30033B00212012539B0021201253FB00212AA
:1011030001254BB0021201257EB00212012510BC4D
:101113000112012592BC011201253BBD01120125DB
:1011230083BE0112012591C00112012577C101126D
:101133000125ACC101120125CEC10112012570C2E6
:101143000112012540C40112012569C401120125C0
:101153009BC401120125A8C401120125F3C4011285
:10116300012517C50112012568C70112012572C89F
:1011730001120125CEC801120125F7ED0112012547
:1011830008EF01120125ECEF011201250EF0011207
:1011930001251AF001120125BEF101120125EBF11F
:1011A3000112012501F30112012551F30112012559
:1011B300A0F40112012575F501120125D1F50112E3
:1011C30001253CF601120125DDF60112012549F73F
:1011D30001120125C4F70112012519FE011201258F
:1011E3003EFE01120125B4FE011201255CF8011235
:1011F300012565F8011201256EF80112012546F952
:1012030001120125F7FA0112012527FB011201251D
:1012130052FB011201257DFB01120125B1FB0112D5
:101223000125F0FB011201251BFC0112012583FCA2
:1012330001120125AEFC01120125FDFC011201255D
:1012430028FD0112012556FD0112012579FD011228
:10125300012552E4021201257EE402120125ABE4CA
:1012630002120125B5E402120125C5E4021201258B
:10127300D8A202120125E2A20212012523A302121F
:1012830001256CA302120125A6A302120125FCA3CA
:10129300021201251DA40212012526A40212012512
:1012A3007AA402120125A3A402120125ADA40212FD
:1012B30001251BA502120125ABA50212012506A6D5
:1012C3000212012534A602120125BCA60212012531
:1012D300FBA60212012530A70212012542A7021222
:1012E300012561A7021201256AA7021201252CA874
:1012F30002120125C5DF021201256CD40212012559
:10130300A2D402120125D6D40212012523D6021239
:101313000125CFE402120125E5E402120125EFE4E1
:101323000212012539E502120125B57B00120125C0
:10133300C87B001201258C7C00120125CB7C001296
:101343000125E87C00120125217D001201256E7D17
:1013530000120125A07D00120125D77D0012012571
:10136300EA7F00120125BCE002120125DFE0021230
:1013730001250EE10212012526E10212012568E191
:1013830002120125488101120125E782011201257C
:101393009283011201251284011201259E840112F8
:1013A3000125798801120125F08801120125078A98
:1013B30001120125418A01120125828A01120125A8
:1013C300C98B011201251F8C01120125688C0112A2
:1013D3000125D78C01120125438D01120125748D3E
:1013E300011201258C8D01120125A58E0112012503
:1013F300B58E011201256B90011201258290011215
:101403000125B49001120125569201120125EA9299
:101413000112012588E20212012599E20212012537
:10142300F0E5021201252FE60212012557E602120A
:10143300012539E30212012549E3021201255EE386
:1014430002120125C6E302120125C3DE02120125A1
:1014530048DF02120125ACDF0212012530DB021244
:10146300012559DB02120125C3DB0212012514DC1D
:10147300021201256FDC0212012544CD021201255F
:101483005CCD0212012577CD02120125A1CD0212F6
:101493000125ADCD02120125E0CD02120125FACDC1
:1014A3000212012514CE021201252BCE02120125B0
:1014B3006ECE02120125BFCE0212012539CF0212D0
:1014C300012553C0021201256AC002120125E4C09E
:1014D30002120125C8C1021201259FC30212012570
:1014E30098D902120125EAD9021201255DDA021206
:1014F3000125CADA0212012525D2021201254FD293
:10150300021201251ED302120125FAD3021201256C
:10151300AC9202120125789302120125B9930212AB
:101523000125F39302120125519402120125A5947A
:101533000212012503950212012599950212012534
:10154300A196021201252B9802120125C9980212B5
:101553000125309902120125439902120125379A78
:1015630002120125809A02120125079B021201250E
:10157300249B02120125A49B02120125209D021225
:101583000125EF9D021201255CA10212012542A251
:1015930002120125BEDD02120125D4DD021201254E
:1015A30006DE0212012546DE02120125A4DE021226
:1015B3000125D2FF0112012539E602E06670100809
:1015C300A3E066700A08A3E066700408A3E066223D
:1015D300C3E7960809E7960809E7960809E79622FC
:1015E300C3E09608A3E09608A3E09608A3E096223A
:1015F300C008C3E096F50808A3E096420808A3E0F4
:1016030096420808A3E09645087001D3D008220843
:101613000808EAC0E0EBC0E086F0E7A4FA18098600
:10162300F0E7A42AFA180986F0E7A42AFA1809862B
:10163300F0E7A42AFA1986F0E7A4FBE5F02AFA19E1
:101643000886F0E7A42BFBE5F03AFA190886F0E7E1
:10165300A42BFBE5F03AFA18180986F0E7A4C5F0C5
:101663002BFBE43AFA1908E7C5F0C6A426F6E5F021
:101673003BFBE43AFA1886F0E7A4F6E5F00826F611
:10168300E43B08F6E43A08F6D0E0FBD0E0FA22E4C3
:10169300CFC0E0E4CEC0E0E4CDC0E0E4CCC0E07570
:1016A300F020C3E633F608E633F608E633F608E639
:1016B30033F6181818EC33FCED33FDEE33FEEF333D
:1016C300FFC3EC9709ED9709EE9709EF97191919DD
:1016D300400FFFEC97FC09ED97FD09EE97FE1919F2
:1016E30006D5F0BEECF709EDF709EEF709EFF719A8
:1016F3001919D0E0FCD0E0FDD0E0FED0E0FF22607D
:1017030016080808C6C313C618C613C618C613C6D8
:1017130018C613C6D5E0EA22700908080822601625
:10172300181818C6C333C608C633C608C633C60856
:10173300C633C6D5E0EA22E627F60809E637F608F7
:1017430009E637F60809E637F622E026F608A3E0AD
:1017530036F608A3E036F608A3E036F622E026F0D4
:1017630008A3E036F008A3E036F008A3E036F02241
:10177300C3E697F60809E697F60809E697F6080917
:10178300E697F622C3E096F008A3E096F008A3E0FC
:1017930096F008A3E096F022E056F608A3E056F68A
:1017A30008A3E056F608A3E056F622E056F008A395
:1017B300E056F008A3E056F008A3E056F022E0F666
:1017C30008A3E0F608A3E0F608A3E0F622E6F00893
:1017D300A3E6F008A3E6F008A3E6F022E0FAA3E00C
:1017E300FBA3E0FCA3E0FD22EAF0A3EBF0A3ECF003
:1017F300A3EDF022CAC0E0E6F0A308DAFAD0E0FADB
:1018030022CAC0E0E0A3C582CCC582C583CDC5830F
:10181300F0A3C582CCC582C583CDC583DAE6D0E00B
:10182300CA22C3E498F8E499F91218668026C3E43F
:101833009AFAE49BFBE920E7E9121866E498F8E4D6
:1018430099F922C3E498F8E499F9121866E498F830
:10185300E499F9C3E49AFAE49BFB22EB20E7CFE98E
:1018630020E7E0B90010BB0008E88AF084F8AAF08A
:1018730022E4FBC8FA22EB70227B10C833C8C933B9
:10188300C9335007C39AC3DBF280069A50012ADB9F
:10189300EAC833F4C8C933F4C9FA2275F008E4C8B6
:1018A30033C8C933C933C99AC99B5004C92AC93B30
:1018B300D5F0ECFBC833F4C8E4C9FA22600D08C6BE
:1018C300A2E713C618C613C6D5E0F322600C08C6F8
:1018D300C313C618C613C6D5E0F422700422600DE4
:1018E30018C6C333C608C633C6D5E0F41822251874
:1018F30010AF08F518400215198008F518400215B5
:1019030019D2AF22C0D0251810AF08F51850020520
:10191300198008F51850020519D2AFD0D022251826
:10192300F58210AF08F518400215198008F5184024
:10193300021519D2AF851983222518F582E43519CA
:10194300F58322E4732518C582C0E0E51934FFC589
:1019530083C0E0E518C3958224F810AF0885831986
:101963008582188008858319858218D2AFCEF0A3AB
:10197300E520F0A37808E608F0A3DEFAEFF0A3E58C
:101983008124FAF8E608F0A3E608F0A3E608F0A33A
:101993000808E608F0A3E608F0A315811581D0E056
:1019A300FED0E0F8158115811581E8C0E0EEC0E0B6
:1019B300222518C582C0E0E51934FFC583C0E0E5E0
:1019C30018C3958224F910AF08858319858218807E
:1019D30008858319858218D2AFCEF0A3E520F0A342
:1019E3007808E608F0A3DEFAEFF0A3E58124FBF81C
:1019F300E608F0A3E608F0A30808E608F0A3E60863
:101A0300F0A315811581D0E0FED0E0F81581158192
:101A1300E8C0E0EEC0E022851983851882E0A3FECA
:101A2300E0A3F5207808E0A3F608DFFAE0A3FFE0DF
:101A3300A3C0E0E0A3C0E0E0A3C0E0E0A3C0E0E017
:101A4300A3C0E010AF0885821885831980088582BA
:101A530018858319D2AFD083D082020122851983DE
:101A6300851882E0A3FEE0A3F5207808E0A3F6083A
:101A7300DFFAE0A3FFE0A3C0E0E0A3C0E0E0A3C07F
:101A8300E0E0A3C0E010AF088582188583198008C1
:101A9300858218858319D2AFD083D08222C0D02506
:101AA30018C582C0E0E51934FFC583C0E0E518C35B
:101AB300958224F310AF08858319858218800885E1
:101AC3008319858218D2AFC8F0A3E9F0A3EAF0A383
:101AD300EBF0A37908E709F0A3D8FAECF0A3EDF053
:101AE300A3EEF0A3EFF0A3D0E0F0A3D0E0F0A3D0F7
:101AF300E0F0A3E520F0A3E5F0F0A32285198385A8
:101B03001882E0C0E0A3E0F9A3E0FAA3E0FBA37826
:101B130008E0F608A3DFFAE0FCA3E0FDA3E0FEA3E0
:101B2300E0FFA3E0C0E0A3E0C0E0A3E0F5D0A3E0C2
:101B3300F520A3E0A3F5F010AF088583198582187B
:101B43008008858319858218D2AFD082D083D0E0F4
:101B5300F8D0E03274048006740280027401C0E09D
:101B6300F404121921D0E01217F7227404800474CC
:101B7300028000CCC0E0EDC0E0E518C39CCCAD19F9
:101B830050011D10AF068C188D1980068C188D1905
:101B9300D2AF121804D0E0FDD0E0FC22D083D08273
:101BA300ECC0E0EDC0E0E493A3FCE493A3FDED4CB3
:101BB300600D121BEBEC24FFFCED34FFFD80EFE422
:101BC30093A3FCE493A3FDED4C600D121C2AEC24BB
:101BD300FFFCED34FFFD80EFD0E0FDD0E0FCE493AB
:101BE300A3C0E0E493C0E022C0E0C3E4939608748A
:101BF30001939618400FE493667008087401936686
:101C03001870007019A3A3C3E49396087401939604
:101C130018A3A3400DD0E0D0E0D0E0021BDBA3A3C8
:101C2300A3A3A3A3D0E022C0E0C0F088F0E49366AE
:101C330070080874019366187000A8F0A3A3700BD2
:101C4300D0F0D0E0D0E0D0E0021BDBA3A3D0F0D0F3
:021C5300E0228D
:101C580074F51219B4EAFEEBFFEE2434F8EF340001
:101C6800F988088909EE2435F582EF3400F583E018
:101C7800F8EE2437F582EF3400F583E0F50AEC85B9
:101C88000AF0A4FCAAF0850AF0EDA42AFDE82CF8D5
:101C9800E43DF97A257B00121866EA8508828509F1
:101CA80083F05407F87401B800028004C333D8FCE9
:101CB800C0E0E0131313541FF8EE28F8EF3400F9CE
:101CC800E8245DF582E93400F583D0E0F8E0586057
:101CD80008EE2434F582EF801EEE2436F582EF34C8
:101CE80000F583E0F5F0EA84A8F0EE28F8EF340078
:101CF800F9E82438F582E93400F583E0F97F040235
:101D08001A6074F51219B4EAFEEBFFEE2434F5827A
:101D1800EF3400F583E0C0E0EE2435F582EF3400BF
:101D2800F583D0E0F08E828F83A3A3A3A3A3A3A3FC
:101D3800C082C0838E828F83A3A3A3A3A3E0F8A34A
:101D4800E0F9D083D082E0C398F508A3E099F509BB
:101D5800EE2480F582EF3400F583E064017069EECB
:101D68002481F582EF3400F583E0F8A3E0F98E8250
:101D78008F83A3A3A3A3A3A3A3E0FCA3E0FD8E8268
:101D88008F83A3A3A3A3A3E0FAA3E0FBC3EA9CEB7E
:101D98009D5027C3EC98ED99402EC3EA98EB9950D3
:101DA800277CF97D04EEFAEFFB120F10EE2480F584
:101DB80082EF3400F583E4F0800EC3EA98EB994093
:101DC800E0C3EC98ED9950D9EE2434F8EF3400F9DB
:101DD800E8FCE9FDEE2435F582EF3400F583E0F800
:101DE800EE2437F582EF3400F583E0F50AE508853F
:101DF8000AF0A4F508AAF0850AF0E509A42AF5096D
:101E0800E82508F8E43509F97A257B00121866EA0E
:101E18008C828D83F05407F87401B800028004C3E3
:101E280033D8FCC0E0E0131313541FF8EE28F8EF82
:101E38003400F9E8245DF582E93400F583D0E0F850
:101E4800E0586008EE2434F582EF801EEE2436F563
:101E580082EF3400F583E0F5F0EA84A8F0EE28F884
:101E6800EF3400F9E82438F582E93400F583E0F925
:101E7800122420021D05C082C0838518828519831B
:101E8800E0F8A3E0F9C3EA9CEB9D5012C3EC98ED8F
:101E9800994019C3EA98EB99501279018010C3EA66
:101EA80098EB9940F5C3EC98ED9950EE7900D08302
:101EB800D08222EAC39CFAEB9DFB2200852187850C
:101EC80022C622C0E0C0D0E8C0E0E9C0E0EAC0E035
:101ED800EBC0E0ECC0E0EDC0E0C008C009C00AC03B
:101EE8000BC082C083C0F0759B00906182E0A2E6BF
:101EF8004003021FA9E591A2E64003021FA97591BC
:101F0800BF9003BEE06405700812103012103C80C8
:101F180003121036752100121090E99003BFF07972
:101F280000121084120E867A017B009003BDE0F93E
:101F38001212CA907803E064426003021FF290050F
:101F48005BE014F06003021FF2C2AF121F56007864
:101F58002AD0E0F618D0E0F6E59F5407F97005900E
:101F6800811080039080D478081217C1E9C4C0E0BA
:101F78007829E65508F50808E65509F509740B7837
:101F8800081218CFD0E02508F8906270E0A2E74068
:101F9800F8E8C333906272F0906270E0D2E0F080AB
:101FA80049E0A2E55024E591A2E5501E7591DF9025
:101FB80003BEE0640D70139003E0E004F064287041
:101FC80002E4F07A00E0F9121102906181E0A2E3E4
:101FD8005009E5E9A2E3500375E9F7A3E0A2E75049
:101FE80009E591A2E7500375917FD0F0D083D082A4
:101FF800D00BD00AD009D008D0E0FDD0E0FCD0E06A
:10200800FBD0E0FAD0E0F9D0E0F8D0D0D0E032C090
:10201800E0C0D0C082C083906183E0A2E05009E5AF
:10202800BFA2E0500375BFFEE0A2E15009E5BFA2E0
:10203800E1500375BFFDE0A2E25009E5BFA2E250FE
:102048000375BFFBE0A2E35009E5BFA2E3500375A7
:10205800BFF7E0A2E45009E5BFA2E4500375BFEF63
:10206800E0A2E55009E5BFA2E5500375BFDFE0A295
:10207800E65009E5BFA2E6500375BFBFD083D08202
:102088008088C0E0C0D0E8C0E0E9C0E0EAC0E0EB8A
:10209800C0E0ECC0E0EDC0E0C0F0E5A7A2E6500F5C
:1020A800E5A1A2E6500953A7BF75A1BF1220EFE52D
:1020B800A7A2E5500CE5A1A2E5500653A7DF75A13C
:1020C800DFE5A7A2E15009E5A1A2E1500375A1FD52
:1020D800E5A7A2E2500CE5A1A2E2500653A7FB75C2
:1020E800A1FBD0F002200074F81219B475210190F8
:1020F80003BEE064067015120FDC8A828B83A3A3EB
:10210800A3A3A3A3E0FAA3E0FB12101EA2AFE4333B
:10211800FED2AF9003C4E0640170187A207B00906F
:1021280003BDE0F912134E7A207B009003BDE0F95D
:102138001212D0906182E0D2E6F090055AE0602158
:1021480085C62280169003C3E064017008E5C65472
:10215800F84405F5C653BEFC121EC474016521601F
:10216800E4EEA2E092AF7F01021A60008E238F2472
:10217800858228858327851882851983E0CEA3E088
:10218800CF852882852783EBC9EAC8EDCBECCA75D1
:10219800F010C3E833C8E933C9EA33CAEB33CBC319
:1021A800EA9EF526EB9FF525B35004AB25AA26EC4D
:1021B80033CCED33CDD5F0DAAE23AF242274F1124F
:1021C80019B48A088B098C0A8D0B740F12193C7884
:1021D8000C1217C19080B0780812179B9080B078C5
:1021E8000C12179B7808790C1215D35015780879BA
:1021F8000C1217739080F078081215F340157901C6
:102208008013780C79081217739080F0780C1215E7
:10221800F340EB79007F08021A6074ED1219B48A52
:10222800088B098C0A8D0B741312193C780C121741
:10223800C19080B0780812179B9080B0780C121764
:102248009B780C79081215D340117808790C12176D
:1022580073AA08AB09AC0AAD0B8022751000751182
:10226800007512007513017810790C121773781025
:10227800790812173AAA10AB11AC12AD137F0C02F1
:102288001A609080B078081217C18A828B83780808
:102298001217AE7F04021A6074F51219B48C828D7D
:1022A8008378081217C18A828B837808121787EA05
:1022B8002404F8EB3400F98C828D83A3A3A3A3E054
:1022C800FCA3E0FD88828983C3E09CF0A3E09DF035
:1022D80088828983C3E09420A3E0944E40229081B1
:1022E8001878081217C18A828B8378081217608AB7
:1022F800828B83A3A3A3A3E02420F0A3E0344EF0B1
:10230800808074F51219B4E9FE900510E0FAA3E094
:10231800FBEEC333F8E433F9746A28F58274803924
:10232800F583E02AF508A3E03BF5097808121B5B62
:102338009081141217DF12217474021219078A0887
:102348008B098C0A8D0B74107808121702AA08AB37
:10235800097F04021A6074F11219B48A0C8B0D8C6F
:102368000E8D0F740F12193CE0FAA3E0FB741112E2
:10237800193CE0F508A3E0F509741312193CE0FED6
:10238800A3E0FF7808121B5BEA2401F508EB340090
:10239800F509E4F50AF50B780C7908121612908005
:1023A800FC78081217C1780C7908121612AA0CAB1F
:1023B8000DAC0EAD0F12217474021219078B09EAC5
:1023C800450960047A0180027A00EC2AFCED3400A9
:1023D800FDECF8EDF97A717B021218668808890914
:1023E800E4F50AF50B8E828F8378081217D0ECF883
:1023F800EDF97A717B021218668A088B09740578E0
:10240800081218DE8E828F83A3A3A3A3E508F0A386
:10241800E509F07F08021A60C082C083E990600075
:10242800F0D083D08222C0E074F2121AA0A2AFE4E6
:1024380033FED2AFE58AA2E55003121474758A0000
:10244800C2EBEEA2E092AF7F01021AFFC0E0C0D05B
:10245800E8C0E0E5A8D2AFC2C7A2E792AFD0E0F8E3
:10246800D0D0D0E032C0E0C0D0C082C083C28BE5FB
:0E247800C1900876F0D083D082D0D0D0E03270
:10248800FFFFFFFFFFFFFFFFC082C08390619074D2
:1024980004F0A37448F0A37402F09061807440F0D3
:1024A8009061BC7403F09061877419F09062657450
:1024B8001BF090619C740DF090619A7433F0A374D2
:1024C80055F09061A0743AF0900558E064017009E5
:1024D800C2919003C2746780059003C27461F09042
:1024E800248EE493906186F0902488E493F4602726
:1024F800E493540FF8906185E0686012E5C6548053
:102508004449F5C6E59E547F644970F8E8F053C61F
:1025180080E59E547F70FA79051210E40226A5C062
:1025280082C083E5A8F853A87E906181E4F0A3F007
:10253800A3F0C2BA539AFEC289759B00C2C275E95C
:102548000075910075BF0075A91175B90590618175
:10255800F0A374C0F0A3E4F0D2BA439A017480588F
:1025680042A80226A5C082C08374F81218F190030D
:10257800C0E0F8A3E0F9E849700302269B9003C085
:10258800E0544060237908851882851983AA82ABB4
:1025980083120F6A851882851983AA82AB83120C6D
:1025A8005E9003C0E054BFF0E054806010790C7A6C
:1025B8007C7B05120F6A9003C0E0547FF0E0A2E034
:1025C800503190619A7433F0A37455F09061A074FF
:1025D8003AF0900558E064017009C2919003C27402
:1025E8006780059003C27461F0120C649003C0E028
:1025F80054FEF0E05402603190619A743FF0A37485
:102608005AF09061A0747FF0900558E06401700959
:10261800D2919003C2747180059003C2746AF0125B
:102628000C649003C0E054FDF0E05404601390245F
:102638008CE493906186F0120C6A9003C0E054FB1E
:10264800F0E05408601390248DE493906186F012B2
:102658000C6A9003C0E054F7F0E054106013902423
:102668008EE493906186F0120C6A9003C0E054EFF8
:10267800F0E05420600A120C6A9003C0E054DFF0C6
:10268800A3E05401600D120E92120C709003C1E089
:1026980054FEF074081219078003F0A3F0D083D019
:1026A8008202012274EC12194874F41218F1851888
:1026B80082851983AC82AD837583807582B8740472
:1026C80012180490248C93F4600302283990780837
:1026D800E0C394025003022819740412193CAC8216
:1026E800AD837583807582A27408121804851882D8
:1026F800851983858212858313740412193CAC8270
:10270800AD83750EFF750FFF7FFF7E00750C487552
:102718000D78801574086E70030227AC74096E700A
:10272800030227AC740A6E607B850C82850D837862
:10273800081217C18C828D83A909E50AC9F8881087
:1027480074187808121702E5104508F8C3E098A332
:10275800E099850C82850D8378081217C140188C82
:10276800828D8374187808121702E5104508F8E07E
:10277800C398F8A3E0801C74187808121702E510B3
:102788004508FAE9FB8C828D83E0F8A3E0F9EAC3F7
:1027980098F8EB99F9C3E8950EE9950F5006880E5D
:1027A800890FEEFF0EE50C2404F50CE50D3400F559
:1027B8000DEEC39413500302271C74FF650E7004BA
:1027C80074FF650F60238F08740278081218DE748E
:1027D800482508F58274783509F58378081217C1F9
:1027E800851282851383E508F0EC24020C0CED3485
:1027F80000FD851282851383A38582128583137455
:102808000C12193CE5826C7003E5836D60030227A6
:102818000A7508017509007808121B5B7402121901
:102828003CAC82AD837A237B0912145074021219CE
:1028380007740C1219077F0C021A1AC082C0839001
:1028480061AE7468F0A3746AF090624574FBF0A3FB
:1028580004F053F4FD43FE029005587401F09061B2
:10286800A0E0643A90619A70237433F0A37455F031
:102878009061A0743AF0740164017009C2919003E8
:10288800C2746780289003C274618021743FF0A3EA
:10289800745AF09061A0747FF0740164017009D2D9
:1028A800919003C2747180059003C2746A0226A4D1
:1028B8007F04021A1AC082C08390050AE06401707E
:1028C8000A90050FE06004790C800279000226A5C1
:1028D800C082C08375E1F190050DE0605514600871
:1028E8001460591460518059120EA4900503E0F940
:1028F8007A047B051210669080C01217DF12109CB4
:102908009080CC1217DF12107290050EE0F91210A9
:102918007E79011210D8900501E02416F8A3E0345E
:1029280000F98882898374BCF0A3740EF0790002E0
:1029380026A5120EAA80B4120EB080AF120EB68071
:10294800AA791280EA74F412194875D90D9004F224
:10295800E0A2E0E4331313F8900503E0C4333354E2
:10296800C0484401F5D97801790588828983A3A3F1
:10297800A3E0F5D988828983A3A882A983E864079C
:102988007003E9640570E378F2790488828983A387
:10299800E0F5D988828983A3A882A983E864F870BE
:1029A80003E9640470E575E1959004F2E0F97AF3BF
:1029B8007B0412106C9009DD7456F0A3740EF0A31A
:1029C80074B2F0A3740FF0A374B2F0A3740FF0A361
:1029D80074B2F0A3740FF0A3745CF0A3740EF0A3A8
:1029E80074B2F0A3740FF0A37474F0A3740EF09093
:1029F80009EB74B2F0A3740FF0A374B2F0A3740FD0
:102A0800F0A374B2F0A3740FF0A374B2F0A3740F20
:102A1800F0A374B2F0A3740FF0A374B2F0A3740F10
:102A2800F0900501E0F8A3E0F5838882A3A3780875
:102A38001217C19080C4780812174D9080B078089A
:102A480012179B900501E0240EF8A3E03400F988E2
:102A580082898378081217D0900501E02414F8A31E
:102A6800E03400F9888289837413F09003BE7402FD
:102A7800F00228B8C082C083900513E02407F5D976
:102A8800900503E0C4333354C0F5D978017905883B
:102A9800828983A3A3A3E0F5D988828983A3A88226
:102AA800A983E864077003E9640570E3900513E0FF
:102AB800601F78017905FAE82413F582E93400F5F6
:102AC80083E0F5D988828983A3A882A9831AEA704A
:102AD800E6900533E02407F5D9900503E0C43333C5
:102AE80054C04404F5D97801790588828983A3A361
:102AF800A3E0F5D988828983A3A882A983E864071B
:102B08007003E9640570E3900533E0601F7801798C
:102B180005FAE82433F582E93400F583E0F5D9882D
:102B2800828983A3A882A9831AEA70E675E1959041
:102B380009DD7462F0A3740EF0A374B2F0A3740FED
:102B4800F0A374B2F0A3740FF0A374B2F0A3740FDF
:102B5800F0A3745CF0A3740EF0A374B2F0A3740F26
:102B6800F0A37474F0A3740EF09009EB74B2F0A3A0
:102B7800740FF0A374B2F0A3740FF0A374B2F0A3AF
:102B8800740FF0A374B2F0A3740FF0A374B2F0A39F
:102B9800740FF0A374B2F0A3740FF0908118121799
:102BA800DF900501E0240EF8A3E03400F98882895B
:102BB800831217EB900501E02414F8A3E03400F920
:102BC800888289837412F09003BE74010226A4C01F
:102BD80082C083900513E02407F5D9900503E0C46B
:102BE800333354C04402F5D9780179058882898342
:102BF800A3A3A3E0F5D988828983A3A882A983E83F
:102C080064077003E9640570E3900513E0601F78BA
:102C1800017905FAE82413F582E93400F583E0F533
:102C2800D988828983A3A882A9831AEA70E675E104
:102C3800959009DD746EF0A3740EF0A3746EF0A382
:102C4800740EF0A3746EF0A3740EF0A3746EF0A368
:102C5800740EF0A3746EF0A3740EF0A3746EF0A358
:102C6800740EF0A37474F0A3740EF09009EB74B2B0
:102C7800F0A3740FF0A374B2F0A3740FF0A374B2AE
:102C8800F0A3740FF0A374B2F0A3740FF0A374B29E
:102C9800F0A3740FF0A374B2F0A3740FF09081182E
:102CA8001217DF900501E0240EF8A3E03400F9883C
:102CB8008289831217EB900501E02414F8A3E0340D
:102CC80000F9888289837414F09003BE7404022684
:102CD800A4C082C083900513E02407F5D9900503AA
:102CE800E0C4333354C04406F5D9780179058882A5
:102CF8008983A3A3A3E0F5D988828983A3A882A99D
:102D080083E864077003E9640570E3900513E060E5
:102D18001F78017905FAE82413F582E93400F58370
:102D2800E0F5D988828983A3A882A9831AEA70E684
:102D3800900533E02407F5D9900503E0C4333354F4
:102D4800C04404F5D97801790588828983A3A3A3AF
:102D5800E0F5D988828983A3A882A983E8640770EB
:102D680003E9640570E3900533E0601F7801790595
:102D7800FAE82433F582E93400F583E0F5D988824E
:102D88008983A3A882A9831AEA70E675E195900958
:102D9800DD7468F0A3740EF0A374B2F0A3740FF09E
:102DA800A374B2F0A3740FF0A374B2F0A3740FF07D
:102DB800A374B2F0A3740FF0A374B2F0A3740FF06D
:102DC800A37474F0A3740EF09009EB74B2F0A374BA
:102DD8000FF0A374B2F0A3740FF0A374B2F0A3744D
:102DE8000FF0A374B2F0A3740FF0A374B2F0A3743D
:102DF8000FF0A374B2F0A3740FF09081181217DFCC
:102E0800900501E0240EF8A3E03400F98882898354
:102E18001217EB900501E02414F8A3E03400F988B8
:102E28008289837415F09003BE74030226A4C082BD
:102E3800C083900501E0F8A3E0F5838882A3A3A3EB
:102E4800A3A3A3E40226A274F71219489003ECE0A6
:102E5800F875F004A4C8AAF02AF974EE28F87403E7
:102E680039F9E82405FAE93400FB8A828B83E0FC0F
:102E7800A3E0FD88828983A3A3A3A3A3A3A3A3A3F9
:102E8800ECF0A3EDF088828983A3A3A3A3A3A3A353
:102E9800E024FFF8A3E034FFF98A828B83E8F0A3EB
:102EA800E90230F474F7121948EAFEEBFF9061D09A
:102EB800E06003022F8975D90E75D90375D904EE20
:102EC800248CF582EF3400F583E5822408F8E58345
:102ED8003400F9E0F5D9A3E865827003E9658370E9
:102EE800F2EE2484F582EF3400F583E5822404F8B9
:102EF800E5833400F9E0F5D9A3E865827003E96554
:102F08008370F275E1957908EE248CFAEF3400FBB2
:102F1800120F5E7904EE2484FAEF3400FB120F5E80
:102F28007C00EEF8EFF9ECFAC3E49AFA95E0FBEED0
:102F38002AFAEF3BFBEA248BF582EB3400F583E0B9
:102F4800C0E0E824ABF582E93400F583D0E0F00C6A
:102F580088828983A3A882A983ECC3940840C7EE1A
:102F68002470F582EF3400F583E0F8A3E0F9EE244D
:102F780072F582EF3400F583E8F0A3E9F079018077
:102F88000279000230F5C082C08375D90275D90371
:102F980075D90575E195EA2470F582EB3400F5835F
:102FA800E0F8A3E0F9EA2472F582EB3400F583E84F
:102FB800F0A3E9F079010226A574F6121948EAFE91
:102FC800EBFF90055C7406F075085C7509057808D8
:102FD800121B5B7C017903120FA674021219077584
:102FE800D90675D90375825C758305E0F5D9A3E523
:102FF8008264617004E583640570F075E19590035F
:10300800BEE06408701EEE2470F582EF3400F5838C
:10301800E0F8A3E0F9EE2472F582EF3400F583E8D6
:10302800F0A3E9F079010231C174F6121948EAFEF9
:10303800EBFF9061D0E07066780190055C740BF04E
:103048009003BEE06407701975085C750905780877
:10305800121B5B7C017903120FA674021219077800
:1030680005740128F5D975D90375825C758305E85F
:10307800FAE0F5D9A31AEA70F875E195EE2470F52F
:1030880082EF3400F583E0F8A3E0F9EE2472F582CC
:10309800EF3400F583E8F0A3E9F0790180027900C4
:1030A8000231C174F7121948EAFEEBFF75D90375AE
:1030B800D90375D90DEE24DEF582EF3400F583E0EF
:1030C800F5D975E19579041210A2EE2470F582EF16
:1030D8003400F583E0F8A3E0F9EE2472F582EF34CA
:1030E80000F583E8F0A3E9F079018001F07F01029F
:1030F8001A1A74F6121948EAFEEBFF9061D0E0F84C
:103108007480C398FAEE2483F582EF3400F583E0E7
:103118006004780480027800E8240BF8EAC3985029
:10312800030231BF7D0990055CEDF0EE24E3F8EF72
:103138003400F97A5D7B057C0888828983E08A827D
:103148008B83F088828983A3A882A9838A828B8350
:10315800A3AA82AB831CEC70E0EE2483F582EF34E3
:1031680000F583E0601D75085C7509057808121B79
:103178005B7C097903EEFAEFFB120FA674021219B1
:10318800077D0D74012DF5D975D90375825C75839A
:10319800058D08E0F5D9A31508E50870F675E195E1
:1031A80079041210A2EE241DF582EF3400F583E4B1
:1031B800F0A3F07901800279007F02021A1A74F6EE
:1031C800121948EAFEEBFF9061D0E0F87480C398CA
:1031D800FAEE2483F582EF3400F583E06004780486
:1031E80080027800E82408F8EAC39850030232C63F
:1031F8007D0690055C740CF09003DBE090055DF0B3
:103208007ADC7B03785E79057C028A828B83E0888E
:10321800828983F08A828B83A3AA82AB838882897E
:1032280083A3A882A9831CEC70E07ADE7B037C026E
:103238008A828B83E088828983F08A828B83A3AA1F
:1032480082AB8388828983A3A882A9831CEC70E05F
:10325800EE2483F582EF3400F583E0601D75085C89
:103268007509057808121B5B7C067903EEFAEFFBFB
:10327800120FA674021219077D0A74012DF5D9756B
:10328800D90375825C7583058D08E0F5D9A3150807
:10329800E50870F675E19579041210A2EE2470F530
:1032A80082EF3400F583E0F8A3E0F9EE2472F582AA
:1032B800EF3400F583E8F0A3E9F0790180027900A2
:1032C8000231C174F6121948EAFEEBFF9061D0E0B2
:1032D800F87480C398FAEE2483F582EF3400F583FE
:1032E800E06004780480027800E82404F8EAC398CF
:1032F80050030233A5780290055CE8F0EE24F5F55A
:1033080082EF3400F583E090055DF0EE2483F582CA
:10331800EF3400F583E0601B75085C7509057808D3
:10332800121B5B7C027903EEFA120FA674021219C3
:10333800077806740128F5D975D90375825C7583F9
:10334800058808E0F5D9A31508E50870F675E19534
:10335800EE2474F582EF3400F583E4F0EE2480F572
:1033680082EF3400F583E4F0EE241DF582EF34009B
:10337800F583E4F0A3F079041210A2EE240DF5828F
:10338800EF3400F583E0F8A3E0F9EE2472F582EF5C
:103398003400F583E8F0A3E9F079018002790002AE
:1033A80031C174F61219489061D0E0F87480C3985E
:1033B800FCEA2483F582EB3400F583E060047804AA
:1033C80080027800E82404F8ECC398405B79029006
:1033D800055C7407F0EA24F6F582EB3400F583E027
:1033E80090055DF0EA2483F582EB3400F583E06014
:1033F8001875085C7509057808121B5B7C020912B0
:103408000FA674021219077906740129F5D975D91E
:103418000375825C758305E9F8E0F5D9A318E870AF
:10342800F875E1957901800279000231C174F512CD
:103438001948E9FCA2AFE433F50AC2AF7D00800168
:103448000DEA246FF582EB3400F583E0F8EDC398BC
:10345800501A8D08EA2508F8EB3400F9E8246BF5D2
:1034680082E93400F583E06C70D68024EA246FF892
:10347800EB3400F9E0FEEA2EFAEB3400FBEA246BA9
:10348800F582EB3400F583ECF088828983E004F060
:10349800E50AA2E092AF7F03021A1A74F6121948DD
:1034A800A2AFE433FDC2AFEA246FF582EB3400F536
:1034B80083E014F07C0060368C08EA2508F8EB34C9
:1034C80000F9E8246CF582E93400F583E0C0E0E80F
:1034D800246BF582E93400F583D0E0F00CEA246F20
:1034E800F582EB3400F583E0F8ECC39840CAEA248F
:1034F8006EF582EB3400F58374FFF0EA246AF582F6
:10350800EB3400F583E4F0EDA2E092AF0231C1C0E4
:1035180082C083E5A8F8C2AFEA246BF582EB3400D9
:10352800F583E9F0EA246AF582EB3400F583E4F0E8
:10353800E8A2E792AF0226A574F3121948EAFEEB57
:10354800FFECFAEDFB8A828B83A3A3A3A3E0541FAD
:10355800F0EE2436F582EF3400F583E4F0F50AEE58
:10356800FCEFFD8A828B83E0C0E0EC245DF582ED00
:103578003400F583D0E0F0750B00E50A333333549B
:10358800F8F50C8A828B83E0F508750900E50B785D
:10359800081218BFE508A2E0502FEE2436F8EF34E1
:1035A80000F988828983E0F508EE2508F508EF34EC
:1035B80000F509E5082438F582E5093400F583E5C6
:1035C8000CF088828983E004F0050B050CE50BC339
:1035D800940840AF050A8A828B83A3AA82AB838CA6
:1035E800828D83A3AC82AD83E50AC39405500302A0
:1035F800356B7F05021A1A74F71219489003EAE02E
:10360800640170077A007B000237767E009003F031
:10361800E070F17401F0A3E4F0A3F090045004F01A
:10362800900453E4F0A3F090045604F09003F3E4FC
:10363800F0A3F0A3F0A3F09003FD04F0900423E4BA
:10364800F090810C1217DF9004061217EB90040A11
:10365800E4F0A3F0A3F090046EF0900462F09004FC
:10366800577480F0A3E4F090045DF0900455F09056
:1036780004D9F0A3F0A3F0A3F0A3F0A3F0A3F0A360
:10368800F09004E2F0900471F09004C1F0A3F0907F
:10369800810C1217DF9004C31217EB90810C1217DC
:1036A800DF9004C71217EB9004CDE4F09004CFF03C
:1036B8009004CBF09004E5F0A3F0A3F0A3F0A3F0FE
:1036C800A3F0A3F0A3F078EA7903E8246FF582E980
:1036D8003400F58374FFF00E88828983A3A882A939
:1036E80083EEC3940440E37AEA7B0378F97904888B
:1036F800828983E0C0E0EA2461F582EB3400F58337
:10370800D0E0F088828983A3A882A9838A828B83E8
:10371800A3AA82AB83E864FE7003E9640470D07ADC
:10372800EA7B0378D1790388828983A3E0C0E0EA41
:1037380024E7F582EB3400F583D0E0F088828983B2
:10374800A3A882A9838A828B83A3AA82AB83E86415
:10375800D97003E9640370CF9003EAE004F06401D0
:1037680070089003F2E09003ECF07AEE7B030230ED
:10377800F5C082C0839003F1E4F09003F0F0900369
:10378800EAF0A3F0A374FFF075E1F10226A5C08268
:10379800C083780079009003F1E0600478EE790343
:1037A80088828983A3A3A3A3E0F90226A574F6124D
:1037B8001948EAFEEBFF8E828F83A3A3A3E0600F74
:1037C8008E828F83A3A3A3E4F09003EBE014F09020
:1037D80003EAE014F070069003EC74FFF08E828F19
:1037E80083A3A3E4F09004FEE0700D9003EBE06483
:1037F8000170057900121084EE2465F582EF34001B
:10380800F583E0F8A3E0F9E8496029EE2465F8EFCC
:103818003400F9880889098882F583E0FCA3E0FD73
:103828009003ECE0FA7B00120C94850882850983EA
:10383800E4F0A3F0EEFAEFFB120FD60231C174F7F1
:10384800121948EAFEEBFF8E828F83A3A3A3A3E09D
:10385800FA7B00120CD6EEFAEFFB120F28120FBEFD
:103868000230F5C082C08378D1790388828983A326
:10387800E4F088828983A3A882A983E864D97003C5
:10388800E9640370E69003D2022BD274F612194849
:10389800EAFEEBFFEC2403F8ED3400F98808890907
:1038A800EC2407F8ED3400F9E8FCE9FD8C828D83FF
:1038B800E0F8A3E0F9850882850983E0FAA3E0FB34
:1038C800121866EE240DF582EF3400F583E8F0A3B4
:1038D800E9F08C828D83E0F8A3E0F98508828509F8
:1038E80083E0FAA3E0FB1218668B09EA4509601326
:1038F800EE240DF582EF3400F583E02401F0A3E017
:103908003400F00231C174F6121948EAFEEBFFEEFA
:10391800242EF582EF3400F583E0FCA3E0FD780067
:1039280079FAECFAEDFB121866EE2470F582EF34A2
:1039380000F583E8F0A3E9F0780079FAECFAEDFBFA
:103948001218668B09EA45096013EE2470F582EFB8
:103958003400F583E02401F0A3E03400F00231C123
:1039680074F0121948EAFEEBFF741012193C78083B
:103978001217C11210488A0C8B0D8C0E8D0F908077
:10398800C8780C12174D9080B0780C12179B780CE1
:10399800121B578E828F83E0F8A3E0F5838882A3F9
:1039A800A31217DF1221C57404121907E960030274
:1039B8003AB58E828F83E02402F8A3E03400F9E858
:1039C800FAE9FB8A828B8378081217609080B078B6
:1039D800081217C18A828B8378081217AEEE240B5F
:1039E800F582EF3400F583C082C0838E828F83A373
:1039F800A3A3A3A3E02401F8A3E03400F9D083D063
:103A080082E0687003A3E06970057901023AB78E15
:103A1800828F83A3A3A3A3A3A3A3E02401F0A3E01D
:103A28003400F0EE2474F582EF3400F583E064018D
:103A38007036EE2475F582EF3400F583E0F8A3E0E4
:103A4800F98E828F83A3A3A3A3A3A3A3E068700323
:103A5800A3E0697013EE2475F582EF3400F583E076
:103A68002401F0A3E03400F0EE2480F582EF340066
:103A7800F583E064017036EE2481F582EF3400F5B9
:103A880083E0F8A3E0F98E828F83A3A3A3A3A3A363
:103A9800A3E0687003A3E0697013EE2481F582EF58
:103AA8003400F583E02401F0A3E03400F079007FCE
:103AB80008021A1A74F71219489003ECE0F875F026
:103AC80004A4C8AAF02AF974EE28FE740339FF800A
:103AD80028EE2465F8EF3400F988828983E0FCA396
:103AE800E0FD88828983E4F0A3F08E828F83A3A30C
:103AF800A3A3E0FA7B00120C94EE2465F582EF3460
:103B080000F583E0F8A3E0F9E849604FEE2464F596
:103B180082EF3400F583E0F5087808121B5FEE2485
:103B280063F582EF3400F583E0F9EE2465F582EF62
:103B38003400F583E0FCA3E0FDEEFAEFFB120F5230
:103B48007401121907E96089EE2465F582EF3400E3
:103B5800F583E0F8A3E0F9E84970137C007D008E56
:103B6800828F83A3A3A3A3E0FA7B00120C940230F4
:103B7800F574F2121948EAFEEBFF890A740E12195D
:103B88003CE0FAEE2462F582EF3400F583E064014C
:103B98006003023C459061D0E0F87480C398F50C4E
:103BA800EE2483F582EF3400F583E0600478048026
:103BB8000278008908E928F8E43400F9E8240208C2
:103BC80008E93400F9E50C98E499A2D265D03340AD
:103BD80068EA7005750B028003750B01E0603975A2
:103BE80009007808121B5B7A5C7B05120F88740247
:103BF80012190775085C7509057808121B5BAC0A71
:103C0800A90BEEFAEFFB120FA6740212190774043F
:103C1800250AF50A7C5C7D057401250AF5D9850B12
:103C2800D9E50A600D8C828D83F8E0F5D9A318E8F0
:103C380070F875E195790080067907800279FF7F31
:103C480006021A1AC082C083E960208C828D83E044
:103C58008A828B83F08C828D83A3AC82AD838A8227
:103C68008B83A3AA82AB8319E970E0ECFAEDFB021F
:103C780026A574EA121948907803E06442705E90B1
:103C8800055BE014F07056C2AF123C9400782AD05D
:103C9800E0F618D0E0F6E59F5407F970059081101A
:103CA80080039080D478081217C1E9C4C0E078294D
:103CB800E65508F50808E65509F509740B78081261
:103CC80018CFD0E02508F8906270E0A2E740F8E845
:103CD800C333906272F0906270E0D2E0F09003EC2F
:103CE800E0F4700302409DE0F875F004A4C8AAF05F
:103CF8002AF974EE28FE740339FFEE2402F582EFE8
:103D08003401F583E0F8A3E0F9E849601EEE2402E7
:103D1800F582EF3401F583E0FAA3E0FBEE2401F528
:103D280082EF3401F583E0F91212CA8E828F83A3E1
:103D3800A3A3A3A3A3A3E0F8A3E0F98E828F83A390
:103D4800A3A3A3A3E8F0A3E9F0906054E09003C50F
:103D5800F0906055E09003C6F0906056E09003C77D
:103D6800F0906057E09003C8F0906058E09003C965
:103D7800F0906059E09003CAF090605AE09003CB4D
:103D8800F090605BE09003CCF090605CE0FC900306
:103D9800CDF090605DE0FB9003CEF090605EE0FDBA
:103DA8009003CFF090605FE0FA9003D0F09003CBDF
:103DB800E08C082508F8E43400F98D08E82508F8AF
:103DC800E93400F98B08E82508F8E93400F98A088D
:103DD800E82508FAE93400FBEE24F7F582EF340011
:103DE800F583E02AF0A3E03BF08C08EE24F9F58295
:103DF800EF3400F583E02508F0A3E03400F0EE246A
:103E0800FBF582EF3400F583E02401F0A3E03400F1
:103E1800F0EE24FFF582EF3400F583E0F8A3E0F933
:103E2800E8496042906000E0C333FCE433FDE82CCD
:103E3800F582E93DF583E02AF0A3E03BF0906000CD
:103E4800E0FA9003CDE0FCEAC333FAE433FBE82A56
:103E5800F8E93BF9E8244AF582E93400F583E02CD7
:103E6800F0A3E03400F09003CBE070119003CEE0B3
:103E7800700BA3E07007A3E07003023F7D8E828F72
:103E880083A3A3A3A3A3E0F8A3E0F9EE240DF5828E
:103E9800EF3400F583E028F8A3E039F9EE240BF5B8
:103EA80082EF3400F583E8F0A3E9F0EE240FF58201
:103EB800EF3400F583E4F0EE241CF582EF3400F5CE
:103EC80083E06401701EEE2420F582EF3400F58350
:103ED800E0F8A3E0F9EE241DF582EF3400F583E85D
:103EE800F0A3E9F09003C6E06052EE241CF582EFDF
:103EF8003400F5837401F0EE246AF582EF3400F59E
:103F080083E07038EE2474F582EF3400F583E070B6
:103F18002BEE2480F582EF3400F583E0701EEE244A
:103F280020F582EF3400F583E0F8A3E0F9EE241DD4
:103F3800F582EF3400F583E8F0A3E9F0906062E0E1
:103F480070030240308E828F83E0F8A3E0F9E82402
:103F580006FCE93400FDE82402FAE93400FB1210FB
:103F6800428E828F83E02412F8A3E03400F988821D
:103F7800898302403A9003CDE0603AEE240FF5823F
:103F8800EF3400F583E4F0EE241CF582EF3400F5FD
:103F980083E064017040EE2420F582EF3400F5835D
:103FA800E0F8A3E0F9EE241DF582EF3400F583E88C
:103FB800F0A3E98020EE24FDF582EF3400F583E0DC
:103FC8002401F0A3E03400F0EE241DF582EF340064
:103FD800F583E4F0A3F0EE240BF582EF3400F583CB
:103FE800E0F8A3E0F98E828F83A3A3A3A3A3E068DC
:103FF8007003A3E0696003023EECEE240FF582EF44
:104008003400F583E060128E828F83A3A3A3A3A359
:10401800E064057002A3E0600B7908EEFAEFFB128A
:104028000F2E8071793E80F3EE241DF582EF340067
:10403800F583E4F0A3F0906060E0C0E0EE2469F559
:1040480082EF3400F583D0E0F09003CBE0F8EE2463
:1040580067F582EF3400F583E02802419D90055909
:10406800E0640170351210F0EE2467F582EF340039
:10407800F583E070069060607480F0EEFAEFFB1252
:10408800100CE96401600E120F4C121006E964016D
:104098006003120FBE7F0E021A1AEE2483F582EF18
:1040A8003400F583E06004780480027800E50CC3EE
:1040B80098F9120C888A0A8B0BEA450B60A7EE2444
:1040C80083F582EF3400F583E070048A088B09E5F4
:1040D8000C6012850882850983F512E5D9F0A315CD
:1040E80012E51270F6EE2483F582EF3400F583E0D2
:1040F800603774FC250CF50C7808121B5BAC0CA916
:104108000DEEFAEFFB120FAC7402121907E97019E1
:104118007403650D70030241DDE50A24FBFAE50B23
:1041280034FFFB12130C0241DD7403650D700302AA
:1041380041E2850C0E750F00780E121B5BAC08ADC2
:1041480009AA0AAB0B120F887402121907EE246928
:10415800F582EF3400F583E064807004747F800199
:10416800E0F5087808121B5FE50DF5087808121BC2
:104178005FA90CAC0AAD0B9003ECE0FA7B00120CC3
:104188008E74021219071210FCEE2467F582EF34C0
:1041980000F583E014F0E0700302407D75085C755B
:1041A8000905750A00750B00E5D914F50CE5D95415
:1041B80003F50D60207403650D70030240D7E50C0C
:1041C8007003024065EE2468F582EF3400F583E061
:1041D8006003024065793D02402385088285098392
:1041E800E0F8A3858208858309603B1470030243C5
:1041F800DA1470030246CE14700302443824FD70AA
:104208000302455814700302418E1470030245AE30
:1042180024FE70030245671470030245A914700355
:10422800024643024652EE2477F510EF3400F511AA
:10423800E0851082851183F0850882850983A3852E
:104248008208858309EE2478F50EEF3400F50F799E
:1042580002AC08AD09AA0EFB120F588A088B09EEAA
:10426800247AF50CEF3400F50D7902AC08AD09AAF3
:104278000CFB120F588A088B097902AC08AD09EEBD
:10428800247CFAEF3400FB120F588A088B09EE24BD
:104298007EF50AEF3400F50B7902AC08AD09AA0ADD
:1042A800FB120F588A088B09851082851183E0C399
:1042B80033F0850E82850F83E0F8A3E0F9E8C33375
:1042C800F8E933F9850E82850F83E8F0A3E9F085D4
:1042D8000C82850D83E0F8A3E0F9E8C333F8E933ED
:1042E800F9850C82850D83E8F0A3E9F0850A8285BB
:1042F8000B83E0F50CA3E0F50D7404780C1218DEBE
:10430800850A82850B83E50CF0A3E50DF0EE247594
:10431800F50AEF3400F50B7902AC08AD09AA0AFBDF
:10432800120F58850A82850B83C082C0838E828FC4
:1043380083A3A3A3A3A3E0F8A3E0F9D083D082E0EA
:10434800C398F8A3E099F9C3E894FFE9947F40057E
:104358007928024023EE247CF582EF3400F583E0CF
:104368002401F508A3E03400F509E4F50AF50BEE9D
:10437800247AF582EF3400F583E0F8A3E0F9E8C386
:1043880033F8E933F9880C890DE4F50EF50F780850
:10439800790C121612EE247EF582EF3400F583E0D4
:1043A800F50CA3E0F50D780C79081215D3400579C2
:1043B8003B024023EE2474F582EF3400F583740148
:1043C800F0EE241DF582EF3400F583E4F0A3F0024B
:1043D800418EEE2481F50AEF3400F50B7402C0E03B
:1043E8007905AC08AD097AF97B04120F58EAFCEBA1
:1043F800FDD0E0F9AA0AAB0B120F58850A82850B8B
:1044080083C082C0838E828F83A3A3A3A3A3E0F873
:10441800A3E0F9D083D082E0C398F8A3E099F9C368
:10442800E894FFE9947F4003024358EE2480808794
:10443800EE24E2F582EF3400F583E07039EEF8EF10
:10444800F97AD17B038A828B83A3E0C0E0E824E376
:10445800F582E93400F583D0E0F08A828B83A3AA41
:1044680082AB8388828983A3A882A983EA64D970EE
:1044780003EB640370CFEE24E3F582EF3400F58399
:10448800E0A2E0EE401824DEF582EF3400F58374F4
:104498001AF0790DEEFAEFFB120EFE02418E24623D
:1044A800F582EF3400F583E4F0EE2468F582EF340A
:1044B80000F583E4F0EE24E1F582EF3400F583742F
:1044C80001F07908AC08AD09EE249CFAEF3400FB42
:1044D800120F588A088B097902AC08AD09EE24A49A
:1044E800FAEF3400FB120F588A088B09EE2494F572
:1044F8000AEF3400F50B7908AC08AD09AA0AFB12DB
:104508000F588A088B097908AA0AAB0B120F5EEEBE
:104518002488F50AEF3400F50B7904AC08AD09AA34
:104528000AFB120F587904AA0AAB0B120F5EEE248D
:104538008CFAEF3400FB120F70EE2484FAEF34008B
:10454800FB120F769003C0E04480F0790402449C8B
:10455800EE24DFF582EF3400F58374010243D6EED2
:104568002462F582EF3400F583E4F0EE2468F582E6
:10457800EF3400F583E4F0EE24D3F582EF3400F550
:1045880083E4F0EE24DDF582EF3400F5837401F066
:10459800EE24D4F582EF3400F583E4F0790B02447D
:1045A8009CEE24E080ADEEF8EFF97AD17B038A82A5
:1045B8008B83A3E0C0E0E824E3F582E93400F583C7
:1045C800D0E0F08A828B83A3AA82AB838882898316
:1045D800A3A882A983EA64D97003EB640370CFEEC1
:1045E800F8EFF97AD17B038A828B83A3C082C083D8
:1045F800850882850983E0D083D082FCE05CC0E036
:10460800E824E3F582E93400F583D0E0F0850882F8
:10461800850983A38582088583098A828B83A3AA57
:1046280082AB8388828983A3A882A983EA64D9702C
:1046380003EB640370B1790902449CEE24EBF58224
:10464800EF3400F583E064017011EE24F6F582EF93
:104658003400F583E8F0790702449C8508828509CF
:1046680083E0C0E0EE24EEF582EF3400F583D0E07D
:10467800F0850882850983A38582088583097402E9
:10468800C0E0F9AC08AD09EE24EFFAEF3400FB12F4
:104698000F58EAFCEBFDD0E0F9EE24F1FAEF340014
:1046A800FB120F58EE24EBF582EF3400F58374010A
:1046B800F0EE24EDF582EF3400F583E0600302416B
:1046C8008E790C02449CEE24F5F8EF3400F9E0886A
:1046D800828983F0EE24F4F582EF3400F5837401C7
:1046E800F088828983E0F902402353BFEF02012258
:1046F80074F01219489003ECE0F875F004A4C8AA05
:10470800F02AF974EE28FE740339FF9061D0E06056
:104718000FEE241DF582EF3400F583E4F0A38053F7
:10472800EE246AF582EF3400F583E07047EE2474D6
:10473800F582EF3400F583E0703AEE2480F582EFDD
:104748003400F583E0702DEE241CF582EF3400F57B
:1047580083E06401701EEE2420F582EF3400F583B7
:10476800E0F8A3E0F9EE241DF582EF3400F583E8C4
:10477800F0A3E9F08E828F83A3A3A3A3A3E0F8A3F9
:10478800E0F9EE241DF582EF3400F583E028F8A364
:10479800E039F9E8240108E93400F9EE2407F50ABC
:1047A800EF3400F50B850A82F583E8F0A3E9F0EE13
:1047B800240BF582EF3400F583C3E098A3E0995009
:1047C800358E828F83A3A3A3A3A3A3A3C082C08390
:1047D800EE240BF582EF3400F583E0F8A3E0F9D07E
:1047E80083D082E0C398F8A3E099F9C3E894AAE9D2
:1047F80094105035803BEE240BF582EF3400F5839E
:10480800C082C0838E828F83A3A3A3A3A3A3A3E0A4
:10481800F8A3E0F9D083D082E0C398F8A3E099F92F
:10482800C3E894ABE994105008900500E064017067
:1048380030EE241DF582EF3400F583E4F0A3F08E0A
:10484800828F83A3A3A3A3A3E02401F8A3E03400E9
:10485800F98E828F83A3A3A3A3A3A3A3E8F0A3E95C
:10486800F0EE2474F582EF3400F583E06401600310
:10487800024AE0EE2475F582EF3400F583121B72CC
:104888008E828F83A3A3A3A3A3A3A3E0FCA3E0FD2D
:104898008E828F83A3A3A3A3A3E0FAA3E0FB121E37
:1048A8007E7402121907E97003024AE0EE2475F8D3
:1048B800EF3400F9880889098882F583E0F8A3E0D5
:1048C800F9850A82850B83E8F0A3E9F0EE2477FCEA
:1048D800EF3400FDEEFAEFFB120F3AEE247CF5827E
:1048E800EF3400F583E0F8A3E0F9EE2420F582EF39
:1048F8003400F583E8F0A3E9F0EE241CF582EF34E8
:1049080000F583E4F0EE241DF582EF3400F583E42E
:10491800F0A3F0EE240FF582EF3400F5837401F074
:10492800850A82850B83E0F8A3E0F9EE240DF58271
:10493800EF3400F583E028F8A3E039F9EE240BF50D
:1049480082EF3400F583E8F0A3E9F08E828F83A329
:10495800A3A3A3A3E0FCA3E0FD850882850983E067
:10496800FAA3E0FB121EBB8A088B09EE242EF582FF
:10497800EF3400F583E0FAA3E0FBE4F50AF50B8ACF
:104988000C8B0DF50EF50F7808790C121612EE2423
:1049980078F582EF3400F583E0F50CA3E0F50D78A7
:1049A80008790C12173AEE247AF582EF3400F58371
:1049B800E06A7003A3E06B7044EE247EF582EF3466
:1049C80000F583E0F8A3E0F9EE2432F582EF340035
:1049D800F583E0687003A3E0697022EE247CF58219
:1049E800EF3400F583E0F8A3E0F9EE2430F582EF28
:1049F8003400F583E0687003A3E0696052EE247E1A
:104A0800F582EF3400F583E0F50CA3E0F50D7404AE
:104A1800780C1218CF780C121B5BEE247CF582EF11
:104A28003400F583121B72EE247AF582EF3400F518
:104A380083E0FCA3E0C313FDEC13FC8E828F83A3F9
:104A4800A3A3A3E0FA7B00120CDC7404121907EE8E
:104A58002477F582EF3400F583E0C0E0EE242BF5EF
:104A680082EF3400F583D0E0F0EE247AF582EF345B
:104A780000F583E0F8A3E0F9EE242EF582EF340088
:104A8800F583E8F0A3E9F0EE247CF582EF3400F535
:104A980083E0F8A3E0F9EE2430F582EF3400F583E3
:104AA800E8F0A3E9F0EE247EF582EF3400F583E028
:104AB800F8A3E0F9EE2432F582EF3400F583E8F04C
:104AC800A3E9F0EEFAEFFB120F40EE2474F582EF43
:104AD8003400F583E4F08016EE242EF582EF3400DE
:104AE800F583E0F508A3E0F509E4F50AF50BEE24F3
:104AF80018F582EF3400F58378081215BE701EEEA3
:104B0800241FF582EF3400F583E0F8EE241DF582CA
:104B1800EF3400F583E0687002A3E06039EE2412F8
:104B2800F50CEF3400F50D780C121B5BEE2410F534
:104B380082EF3400F583121B72EE241DF582EF34E8
:104B480000F583121B72AA08AB09AC0AAD0B12233D
:104B58005E7406121907EE2418F582EF3400F58307
:104B680078081217D0EE241DF582EF3400F583E0A3
:104B7800C0E0EE241FF582EF3400F583D0E0F0EEBC
:104B88002412FCEF3400FD8E828F83E02402FAA306
:104B9800E03400FB1222A0906062E060147C9C7DEF
:104BA800808E828F83E02402FAA3E03400FB122275
:104BB800A08E828F83E0F8A3E0F988828983A3A37B
:104BC800E82408FCE93400FD74061218048E828F6C
:104BD80083E02402F8A3E03400F9E8FAE9FBEE24C4
:104BE8001DF582EF3400F583E0F50CA3E0F50DE444
:104BF800F50EF50F908100780C12174D780C790896
:104C08001216128A828B83780C1217609080B07803
:104C18000C1217C18A828B83780C1217AE9004FE8F
:104C2800E064016003024D5A79011210848E828F6C
:104C380083E0F8A3E0F99081181217DFE8240EF555
:104C480082E93400F5831217EBE82412F8E93400FE
:104C5800F9E8FAE9FBEE2412F582EF3400F58378DF
:104C6800081217C1E50875F0E2A4C508A8F075F0A8
:104C780004A428F875F0E2E509A428F5098A828BCE
:104C880083E02508F0A3E03509F0EE2416F582EF5D
:104C98003400F583E0F508A3E0F5097404780812F8
:104CA80018CFE5082401F8E5093400F98A828B83D6
:104CB800E028F0A3E039F0906062E08E828F837084
:104CC80003024DC6E02412F8A3E03400F988828973
:104CD80083E02410F0A3E03401F0EE240FF582EF16
:104CE8003400F583E06031EE242BF582EF3400F5D3
:104CF80083E0F875F071A4C8AAF075F002A42AF947
:104D08008E828F83E02412FAA3E03400FB8A828B20
:104D180083E028F0A3E039F08E828F83E02414F832
:104D2800A3E03400F9888289837410F08E828F831F
:104D3800E02416F8A3E03400F98882898374C2F06D
:104D4800A3740EF0EEFAEFFB121D0A79007F080239
:104D58001A1A9080EC78081215F35003024C35EEBD
:104D6800241DF582EF3400F583E0F8A3E0F9E84963
:104D78006003024C357808121B57EEFAEFFB120F4E
:104D8800467404121907E964016003024C35EE24E5
:104D98000FF582EF3400F583E060128E828F83A3D3
:104DA800A3A3A3A3E064057002A3E06004790880CC
:104DB80002793EEEFAEFFB120F2E7901808FE02484
:104DC80012F8A3E03400F988828983E02410F8A35C
:104DD800E034FFF97A717B0212186688088909EEB7
:104DE800242EF582EF3400F583E0F8A3E0F9C3E55B
:104DF8000898E509995003024CE280B174F612193B
:104E080048EAFEEBFF803B9003C8E0700302513490
:104E1800EEFAEFFB120F04EE24A4F508EF3400F5C8
:104E2800097808121B5BEE249CFCEF3400FD8E828F
:104E38008F83A3A3A3A3E0FA7B00120CE8740212E9
:104E48001907EE246FF582EF3400F583E0607CEEFD
:104E5800246BF582EF3400F583E024FE603224FEF3
:104E6800606D147003024EF2147003024FD3147075
:104E7800030252AD24FE700302516824FE7003023F
:104E8800509E1470030251C01470030250F380B294
:104E9800EE246AF582EF3400F583E064017019901E
:104EA80003C7E070030251347916EEFAEFFB120FD4
:104EB8002E79017F02021A1AEEFAEFFB120EF2EEB9
:104EC800246AF582EF3400F583E9F0790080E4EE96
:104ED800246AF582EF3400F583E064017003024E22
:104EE8000FEEFAEFFB120EC880D5EE246AF582EFBA
:104EF8003400F583E0640170579003C8E06033EE36
:104F08002483F582EF3400F5837401F090810C124C
:104F180017DFEE24D5F582EF3400F5831217EB90F6
:104F2800810C1217DFEE24D9F582EF3400F58312D5
:104F380017EBEE24DFF582EF3400F583E0640160BF
:104F4800030251347906EEFAEFFB120F0A024E4AB9
:104F5800EE24D3F582EF3400F583E064017028EE87
:104F6800FAEFFB120ECEE964017019EE24DFF58228
:104F7800EF3400F583E4F0EE246AF582EF3400F5AF
:104F8800837401F0024ED3EE24D4F582EF3400F599
:104F980083E060F0EE24B3F508EF3400F5097808F3
:104FA800121B5BEE248CFCEF3400FDEE24C3FAEFF9
:104FB8003400FB120F7C7402121907EE24D3F58219
:104FC800EF3400F5837401F0024E4AEE246AF5824C
:104FD800EF3400F583E0640160030250949003C845
:104FE800E07003025134EE2420F582EF3400F5839B
:104FF800E0F8A3E0F9EE241DF582EF3400F583E82C
:10500800F0A3E9F0EEFAEFFB120F04EE2462F5824A
:10501800EF3400F5837401F0EE2468F582EF340074
:10502800F5837401F0EE24DDF582EF3400F583E0BA
:105038006401701379008E828F83A3A3A3A3E0FA7F
:105048007B00120CF480137C0179008E828F83A37D
:10505800A3A3A3E0FA7B00120CEEEE24DDF582EFA9
:105068003400F583E4F0EE24E1F582EF3400F583B3
:10507800E4F0EE24E0F582EF3400F583E4F0EE246A
:10508800DFF582EF3400F583E4024FCFEEFAEFFB51
:10509800120ED4024EC7EE246AF582EF3400F5836F
:1050A800E064017019EE24E0F582EF3400F583E046
:1050B80064017078EEFAEFFB120F04024E4AEEFA22
:1050C800EFFB120EDAE964016003024ED3EE24E02E
:1050D800F582EF3400F583E4F0EE2483F582EF34B3
:1050E80000F583E4F0EE246A024FC6EE246AF582E6
:1050F800EF3400F583E06401705C9003C8E060263B
:10510800EE2483F582EF3400F583E4F0EE2462F5B3
:1051180082EF3400F5837401F0EE2468F582EF34F1
:1051280000F5837401F09003C7E07088EE2472F8EC
:10513800EF3400F988828983E024FFF0A3E034FF8C
:10514800F088828983E0F8A3E0F9E8496003024E19
:10515800D37922024EB2EEFAEFFB120EE0024EC7EE
:10516800EE246AF582EF3400F583E0640170349030
:1051780003C8E060B7EE24E2F582EF3400F58374EB
:1051880001F0EE2420F582EF3400F583E0F8A3E087
:10519800F9EE241DF582EF3400F583E8F0A3E9F079
:1051A8000250BCEEFAEFFB120EE6EE246AF582EF2F
:1051B8003400F583E9024F8BEE246AF582EF340060
:1051C800F583E064016003025296EE24EBF582EF6A
:1051D8003400F583E064017051EE24ECF582EF347D
:1051E80000F583E0640160030250BCEE24F1F5820F
:1051F800EF3400F583121B72EE24EFF582EF3400D2
:10520800F583121B72EE24EEF582EF3400F583E08D
:10521800FC8E828F83A3A3A3A3E0FA7B00790012FC
:105228000CE274041219070250BCEE2472F8EF3431
:1052380000F988828983E024FFF0A3E034FFF08836
:10524800828983E0F8A3E0F9E8496003024ED3EECF
:1052580024F1F582EF3400F583121B72EE24EFF58A
:1052680082EF3400F583121B72EE24EEF582EF34E0
:1052780000F583E0FC8E828F83A3A3A3A3E0FA7BCF
:10528800007922120CE27404121907025159EE2413
:10529800EDF582EF3400F5837401F0EEFAEFFB12BE
:1052A8000EEC024EC7EEFAEFFB120EF8E96401604D
:1052B80003024ED30250BC74F7121948E99002DC7D
:1052C800F07C147D037AFF7BFF120C049002DD74DE
:1052D800FFF0A3F0A3E4F0A3F07905120B9E90026F
:1052E800DCE0F9120AD87A107B0C120DAE026109C3
:1052F80074F41219488A088B09EB548060309002C4
:10530800DCE0F91212B28A0A8B0BAE0AAF0BEE4F31
:1053180060138E828F83E064B07003120BAAEEFADA
:10532800EFFB1212A0AA08E5096480FB80047A004A
:105338007B000253CAF0A3126547A32274F2121924
:1053480048890AE975F017A4FEAFF09002E1E4F08D
:105358009002DF1253C4600A12130C9002DFE4F0CB
:10536800A3F0EEFAEFFB1213068A088B09EA450947
:10537800602FEEFCEFFD790012128E9002DFE50837
:10538800F0A3E509F07B0080081253AEE4F0A3F027
:105398000BEBC3950A40F2E50A9002E1F079008030
:1053A80002791302674FEB75F017A4F8A9F0900281
:1053B800DFE028FAA3E0398A82F58322125D45EA04
:1053C8004B227F04021A1AC082C0839002E2125450
:1053D80002601C88828983A3A3E06A7003A3E06B40
:1053E8008882898370E8A3A3A3A3125D4180047A0D
:1053F800007B00D083D08202012212675CE8492238
:1054080074EE12194874FC1218F1EAFEEBFF8518C5
:1054180082851983E4F0A3F0EE2402126093EE244F
:105428000512654EEE2404F50EEF1259BAE024FE7B
:10543800603924FC604624FE605224FE605E24FE2F
:10544800700302551B24FE700302557F24FE70036F
:1054580002558E24FE700302559D24FC70030255EC
:10546800AC24FE70030255BB0255F89002FB74177A
:10547800F0A3E412560D1208C20255F88518828569
:105488001983AC82AD83120BB00255C8851882858A
:105498001983AC82AD83120BB60255C8850C0885FA
:1054A8000D09740212193CAC82AD83850882850906
:1054B80083125D41120AF68A0C8B0DAC0CAD0DEC13
:1054C8004D603BE4F50CF50D780C121B5B750CFB7D
:1054D800750D02780C121B5B750CFC750D02780CAF
:1054E800121B5B740812193C121B72126780121986
:1054F80007E9F50C700B125D371208DA800F750C8E
:10550800018508828509831255FB1260B3850C0852
:105518000255CB740212193CAC82AD83850C82858E
:105528000D83125B0C603C850C82850D83A3A3124E
:105538001B727510FB7511027810121B5B7510FC3D
:105548007511027810121B5B740812193C121B7239
:10555800126780121907E9F509700B125D371208F6
:10556800E0800F750901850C82850D831255FB12A9
:1055780060B3850908804C851882851983AC82AD93
:1055880083120BBC803A851882851983AC82AD835F
:10559800120BC2802B851882851983AC82AD8312C9
:1055A8000BC8801C851882851983AC82AD83120BC9
:1055B800CE800D851882851983AC82AD83120BD4F9
:1055C800E9F508E50860298E828F83A3E0641460FA
:1055D8001F850E82850F83E09002FB125605126725
:1055E800589002FC1260B3E508A312560D1208BCCD
:1055F800025FA212675C85188285198322F08518DC
:105608008285198322F07CFB7D02850A82850B83C3
:10561800125D452274EE12194874FC1218F18A0AB8
:105628008B0B8C0E8D0FEA2405F508EB3400F50979
:105638007C157D0079007AFB7B0212128EE5082426
:1056480002F50CE509126551851882851983858252
:10565800108583117810121B5B850882850983A346
:10566800A3A3A3125B03121B5BE5082405F510E551
:10567800093400F5117810121B5B850C82850D83A7
:10568800125E58120AF074061219078A108B11AEAE
:1056980010AF11E50A2402F50AE50B126096EE4FE9
:1056A80070030257DA8017740212193C125D4188A0
:1056B800828983EAF0A3EBF09002FBE004F0900209
:1056C800FBE0C3940540030257DAE4F510F51178BE
:1056D80010121B5B7510E47511027810121B5B75B4
:1056E80010E57511027810121B5B740612193C1232
:1056F8001B727910EEFCEFFD126782121907E97030
:105708005E850882850983A3A3A3A3A3A3A3E0F8C6
:105718009002E4E0687048125B03121B5B7CE57D35
:1057280002E5082408FAE5093400FB12128874021D
:10573800121907E960298E828F83A3A3A3A3125DA0
:10574800419002FBE0F510740278101218DE74FC28
:105758002510F58274023511F583EAF0A3EBF07495
:105768000212193C8582108583117810121B5B7414
:105778000212193C121B72850C82850D83125D671B
:105788001219078A108B11AE10AF119002FBE0F5C9
:1057980010751100740278101218DE74FB2510F8C9
:1057A80074023511F988828983A31253C4700302E5
:1057B80056A6E82403080808E93400F9EE4F600308
:1057C8000256AF8882898374FFF0A3F09002FBE051
:1057D80004F09002FBE0600A125D371208CE7900EF
:1057E800800B8508828509831260AA790A025FA264
:1057F80074EA12194874FE1218F18C128D13EA24F7
:1058080005F50CEB12676A12657A750800750900D0
:10581800EA2402F510EB3400F51185188285198306
:1058280085820A85830B780A121B5B850C82850D9D
:1058380083A3A3A3A31259D0121B5BE50C2405F57F
:105848000AE50D126096780A121B5B850C82850D9D
:10585800831259D4120AF074061219078A0A8B0B9C
:10586800EA450B7003025975EA2404F50EEB125948
:10587800BA12657A8A828B83A3A3A3E0F985108282
:10588800851183125D4B6003025975E4F514F51513
:105898007814121B5B7514E47515027814121B5BDF
:1058A8007514E57515027814121B5B740612193C01
:1058B800121B727913AC0AAD0B8510828511831205
:1058C8006788121907E9F50960030259759002E41F
:1058D800E0F8E5087009E024029002FCF0801490DA
:1058E80002FCE0FCE82402FAE43400FBEA6C7001F4
:1058F800EB707E850882AA82125AFA9414125AF220
:10590800506B850E82850F83E0C0E074FD2A125922
:10591800B1D0E0F00508850E82850F83A3E0C0E0D2
:1059280085080A74FD250A1259B1D0E0F0050890DF
:1059380002E41259D0121B5B7CE57D0285080A74CB
:10594800FD250A1259C41219079002E4E02508F54A
:105958000874FF6E700374FF6F6012EE24010EEF7F
:105968003400FFE508C394145003025822E5086088
:1059780013125D55851082851183125D411208D47A
:1059880079008014E509700375090A851282851368
:1059980083EEF0A3EFF0A90974021219077F0E0233
:1059A8001A1A85080C74FD250CF58274023400F56A
:1059B80083223400F50F850E82F58322FA740234AF
:1059C80000FB1212767402221265B022A3A31259A8
:1059D800DA221260A1FDEEFAEFFB2274EE121948EA
:1059E80074FE1218F18C0E8D0FEA2405F50CEB12DB
:1059F8006551750B009002FBE4F0F50AEA2402F504
:105A080008EB3400F50980449002FBE0FA9002E4C8
:105A1800E0F8125AFA9417125AF2400D9002FBE07D
:105A2800F87416C3989002E4F0125B03121B5B7CB7
:105A3800E57D0274FC2AFA74021259C712190790FC
:105A480002E4E0F89002FBE028F0050AE50C2416D1
:105A5800F582E50D1259B5E0F8E50AC3985074903F
:105A680002FBE0C39416506BE50AC333F8E433F93C
:105A7800E50C28FEE50D39FF851882851983AC826F
:105A8800AD838E828F83125B0C7008750B011260D8
:105A9800A68050E4F510F5117810121B5B7510E420
:105AA8007511027810121B5B7510E57511027810DC
:105AB800121B5B740612193C121B72791685088238
:105AC800850983126788121907E9F50B7003025AD2
:105AD8001080BB7CFB7D02850882850983125D41AD
:105AE8001208E6A90B7402025FA4E99400C365D00A
:105AF8003322EA28F8E43400F9E822E0F5107511B9
:105B080000781022125F998A108B11AC10AD11EC3D
:105B18004D2274EA12194874FC1218F18A0C8B0D84
:105B28008C128D13EA2405F50AEB126096750800AD
